:100000000C942A000C943F000C943F000C943F0089
:100010000C943F000C943F000C943F000C943F0064
:100020000C943F000C943F000C943F000C943F0054
:100030000C943F000C943F000C943F000C943F0044
:100040000C943F000C943F000C943F000C943F0034
:100050000C943F0011241FBECFE5D8E0DEBFCDBF1A
:1000600010E0A0E6B0E0ECE4F1E002C005900D92F3
:10007000A437B107D9F70E9441000C94A4000C9456
:100080000000CF93DF93CDB7DEB764970FB6F89437
:10009000DEBF0FBECDBF84E1E0E6F0E0DE011196E9
:1000A00001900D928A95E1F78FEF8ABB87BB40E004
:1000B00050E020E030E002C040E050E084E08BBB44
:1000C000F901EE0FFF1F81E090E08C0F9D1FE80FFC
:1000D000F91F808188BB9FEF66E781E09150604007
:1000E0008040E1F700C0000088E08BBBFA01EE0F12
:1000F000FF1F81E090E08C0F9D1FE80FF91F8081AA
:1001000088BB9FEF66E781E0915060408040E1F757
:1001100000C0000083B38111D1CF9FEF63EC89E071
:10012000915060408040E1F700C000002F5F3F4FDA
:100130002A30310521F44F5F5F4F20E030E04A3034
:0C014000510509F0BBCFB8CFF894FFCFF9
:10014C000000010002000300040005000600070087
:04015C00100011007E
:00000001FF
